S01800006275696C642F6D696361322F6D61696E2E737265632D
S11300000C945F010C947C010C947C010C947C0195
S11300100C947C010C947C010C947C010C947C0168
S11300200C947C010C947C010C947C010C947C0158
S11300300C947C010C947C010C947C010C94830939
S11300400C947C010C94DD010C9406020C947C014C
S11300500C9430020C949D0A0C947C010C947C0149
S11300600C947C010C947C010C947C010C947C0118
S11300700C947C010C947C010C947C010C947C0108
S11300800C947C010C947C010C947C01001C005E9B
S113009000FA017301EA04BC0A5E050202020202CC
S11300A002000000140055008700B901E5043D007A
S11300B0080808080808AEEFEFEFEFEFEF000021A3
S11300C010422063308440A550C660E7700881293F
S11300D0914AA16BB18CC1ADD1CEE1EFF1311210D7
S11300E00273325222B5529442F772D6623993188F
S11300F0837BB35AA3BDD39CC3FFF3DEE3622443E3
S11301003420040114E664C774A44485546AA54BDE
S1130110B528850995EEE5CFF5ACC58DD553367276
S11301202611163006D776F6669556B4465BB77A2E
S1130130A719973887DFF7FEE79DD7BCC7C448E502
S1130140588668A7784008611802282338CCC9ED7E
S1130150D98EE9AFF9488969990AA92BB9F55AD416
S11301604AB77A966A711A500A333A122AFDDBDCCE
S1130170CBBFFB9EEB799B588B3BBB1AABA66C8722
S11301807CE44CC55C222C033C600C411CAEED8F1E
S1130190FDECCDCDDD2AAD0BBD688D499D977EB6B6
S11301A06ED55EF44E133E322E511E700E9FFFBE6E
S11301B0EFDDDFFCCF1BBF3AAF599F788F8891A941
S11301C081CAB1EBA10CD12DC14EF16FE18010A118
S11301D000C230E3200450254046706760B983981C
S11301E093FBA3DAB33DC31CD37FE35EF3B1029068
S11301F012F322D2323542145277625672EAB5CBE8
S1130200A5A89589856EF54FE52CD50DC5E234C3B7
S113021024A01481046674476424540544DBA7FABB
S1130220B79987B8975FE77EF71DC73CD7D326F207
S1130230369106B01657667676154634564CD96D07
S1130240C90EF92FE9C899E9898AB9ABA944586557
S11302504806782768C018E1088238A3287DCB5C5B
S1130260DB3FEB1EFBF98BD89BBBAB9ABB754A54A7
S11302705A376A167AF10AD01AB32A923A2EFD0F27
S1130280ED6CDD4DCDAABD8BADE89DC98D267C07F7
S11302906C645C454CA23C832CE01CC10C1FEF3EFB
S11302A0FF5DCF7CDF9BAFBABFD98FF89F176E3647
S11302B07E554E745E932EB23ED10EF01E00112474
S11302C01FBECFEFD0E1DEBFCDBF11E0A0E0B1E0B3
S11302D0ECECF9E300E00BBF02C007900D92AC34E4
S11302E0B107D9F714E0ACE4B1E001C01D92AC3A17
S11302F0B107E1F70C947D020C940000AF92BF9219
S1130300CF92DF92EF92FF920F931F93CF93DF93DD
S113031086EEF82EA0909204B0909304C0909404BA
S1130320D0909504A114B104C104D10481F1EE2448
S113033068E873E000E010E081E090E0002E02C085
S1130340880F991F0A94E2F7AA2797FDA095BA2F60
S11303508A219B21AC21BD210097A105B10579F02B
S11303602F2D332744275527FB0185819681A781AB
S1130370B08582179307A407B5070CF4F580E394BE
S11303800F5F1F4F675F7F4FF3E0FE15A8F68FB72F
S1130390F8949927F092D903F1BE1092C0038FBF4D
S11303A00E94F208DF91CF911F910F91FF90EF907F
S11303B0DF90CF90BF90AF9008951F920F920FB629
S11303C00F9211242F933F934F935F936F937F93D7
S11303D08F939F93AF93BF93EF93FF939FB18091BC
S11303E01B038FB9892F0E94730FFF91EF91BF9167
S11303F0AF919F918F917F916F915F914F913F91B9
S11304002F910F900FBE0F901F9018951F920F926F
S11304100FB60F9211242F933F934F935F936F93D3
S11304207F938F939F93AF93BF93EF93FF935F9BC0
S113043006C08CB140E050E060E00E943012FF91B1
S1130440EF91BF91AF919F918F917F916F915F9148
S11304504F913F912F910F900FBE0F901F901895C1
S113046078941F920F920FB60F9211242F933F93FB
S11304704F935F936F937F938F939F93AF93BF93A8
S1130480EF93FF930E94FC13FF91EF91BF91AF9103
S11304909F918F917F916F915F914F913F912F9198
S11304A00F900FBE0F901F901895AC018FB7F89462
S11304B0282F3327E091B9038091B9038F5F80938C
S11304C0B9038091B90387708093B9039091B903FC
S11304D080913F03981759F02FBFFF27EE0FFF1F9E
S11304E0E050FD4F4083518381E090E00895E09314
S11304F0B9032FBF80E090E00895C5EED0E1DEBFE0
S1130500CDBFD29AD09AD19AD698A79AA69AA59AEC
S1130510A49AA39AA29AA19AA09A8C9A8F9A8E9A34
S1130520BB98BF98D498DC98D39A8B9A8D9ADB9A0F
S1130530DA9AD89AD99A83E08C5F8739E8F390E005
S11305408AE08093C3019093B90390933F03A09AE8
S1130550A19AA29AA39ABE9ABD9A1BBC1ABC19BCB2
S113056018BC8FB580688FBD8FB58F7B8FBD8FB55D
S113057080628FBD8FB58F7E8FBD8FB58E7F8FBD0F
S11305808FB582608FBD8EB5877F8EBD8EB580613D
S11305908EBD8EB58B7F8EBD8EB582608EBD8EB5C1
S11305A08E7F8EBD80E197E297BD86BD1092D40305
S11305B01092D3031092D7031092D60310926C04B6
S11305C010926B0410928503109284031092AF036F
S11305D01092AE031092C2011092C1011092BB039B
S11305E01092BA031092BD031092BC0310924704F8
S11305F01092460420E030E040E050E020934803AD
S11306003093490340934A0350934B0320934C0384
S113061030934D0340934E0350934F0320939C0417
S113062030939D0440939E0450939F0480E090E097
S1130630A0EAB1E48093A3049093A404A093A50436
S1130640B093A60480E090E0A0E8BFE38093ED02BD
S11306509093EE02A093EF02B093F00280E590E055
S11306609093D0038093CF032093C2033093C303AA
S11306704093C4035093C5031092B7031092B6037A
S11306801092B8011092B7011092C7031092C603DA
S11306901092B3031092B2031092F7021092F60272
S11306A01092AD031092AC0310925F0410925E049A
S11306B010928B0410928A0410923D0410923C0410
S11306C02093630430936404409365045093660458
S11306D02093360230933702409338025093390204
S11306E020934003309341034093420350934303C8
S11306F010928604109285041092FD021092FC025E
S113070020938C0430938D0440938E0450938F0473
S11307102093F8023093F9024093FA025093FB02BB
S11307202093BD013093BE014093BF015093C0019B
S113073020937B0330937C0340937D0350937E038B
S113074010921A031092190386EC91E09093160309
S1130750809315039093410480934004FC019C0111
S11307602E593F4F80E090E0A0E0B0E08083918379
S1130770A283B38384839583A683B7838087918779
S1130780A287B3873E962E173F0764F7EDE6F4E0A1
S11307909F012C5E3F4F80E090E0A0E0B0E08193A9
S11307A09193A193B1932E173F07ACF786E490E0A1
S11307B09093CE038093CD039093AB048093AA04CB
S11307C08FB7F89499271092A9041092A804109254
S11307D0500410924F0410924703109246038FBFA7
S11307E00E94EE078FB7F894282F33278EE086B93E
S11307F017B82FBF0E9409080E9438088FB7F894D1
S113080099271092C8038FBF8FB7F894282F3327E6
S113081081E08093BA0182E08093540180E593E003
S11308209093BF038093BE031092540382E290E03E
S11308309093B1038093B0031092F50210929B043D
S113084010929A041092EC021092EB02109212038E
S1130850109211031092B6011092B1011092450446
S11308608FEF9FEF9093CA038093C9039093CC03B7
S11308708093CB03109283031092D503E6EBF0E050
S1130880849199279093800380937F032FBF8FB720
S1130890F8949927B998BB98BA986B986A986F9A04
S11308A06E9A8FBFD6988C9A8E9A8F9A949A979AAA
S11308B0969A6AE3809154030E947C086BE380E07B
S11308C00E947C0880ED97E000000000000000001A
S11308D00000000000000000019718161906A4F398
S11308E080E880932703682F8BE00E947C0880E9CE
S11308F080932903682F84E00E947C0810922B03C4
S11309008FE680932C0385E580932D0360912B0360
S11309108FE00E947C0880912C03682F80E10E9464
S11309207C0880912D03682F81E10E947C0811E0EE
S113093010932F03612F83E10E947C0810933A03E4
S113094019821A821B821C8220E030E040E050E0D1
S11309502D833E834F835887BA01A90149875A875B
S11309606B877C876FEF7FEF8FEF9FE76D877E87C5
S11309708F87988B198A1A8A1B8A7B897C8B84E0DF
S113098091E08D8B9E8BA8E2B1E0AF8BB88FE0E055
S1130990F0E0E98FFA8FAD89BE89AD90BD90CD901E
S11309A0DD90AD8BBE8BEE24FF2487011701280157
S11309B060E475E188E99AEDA60195010E94C41CE2
S11309C0DA01C90181709070A070B070892B21F098
S11309D02F5F3F4F4F4F5F4F21FF0BC0212CA0E2F1
S11309E03A2E412C512C8601750116950795F794E2
S11309F0E794E2E05695479537952795EA95D1F720
S1130A00DA01C9017EE0880F991FAA1FBB1F7A95DE
S1130A10D1F7820D931DA41DB51D212C60EE362E39
S1130A206FEF462E6FEF562E280E391E4A1E5B1EA0
S1130A3080509042A044B04080509C49AF4BB0409D
S1130A4008F060C0AF89B88D8D919C91AA27BB270F
S1130A5042013101681A790A8A0A9B0AD401C30146
S1130A6080509040A044B04080509C49AF4BB0406F
S1130A7008F048C0CA01B901A60195010E94911C61
S1130A80DC01CB01E80EF91E0A1F1B1F20E136EB27
S1130A904DEF5FEFE20EF31E041F151FD801C701CF
S1130AA080569B4BA34AB643B7FF07C0B095A095A9
S1130AB0909581959F4FAF4FBF4F4D855E856F8554
S1130AC0788984179507A607B707E4F42D823E8238
S1130AD04F82588669867A868B869C86E982FA825A
S1130AE00B831C83298D3A8D265C3E4FF9012081AE
S1130AF03181298B3A8BFC89FA5FFB8B8D879E872A
S1130B00AF87B88B2C892F5F2C8B498D5A8D4E5F04
S1130B105F4F498F5A8F6F89788D6E5F7F4F6F8BD0
S1130B20788F293008F437CF7B89772309F460C0A4
S1130B308D8180931F032D813E814F815885BB2772
S1130B40A52F942F832F80931E03CA01AA27BB27A6
S1130B5080931D0339853093220349855A856B851B
S1130B607C85BB27A72F962F852F80932103CB014C
S1130B70AA27BB27809320035989509324036989AA
S1130B807A89872F99278093230389819A81AB815E
S1130B90BC818030E5E69E07EDECAE07EDE1BE07D3
S1130BA0A8F480509448A74DB74128F484E8809372
S1130BB0250381E904C084E48093250381E88093BC
S1130BC0390382E08093260380E70AC08CE880938F
S1130BD0250383EF8093390382E38093260380E225
S1130BE080932E032B89220F220F220F2093280398
S1130BF049815A816B817C81409396045093970478
S1130C00609398047093990411E06DE1E62E63E01B
S1130C10F62ED7018D917D01682F812F0E947C08CB
S1130C201F5F1D30B0F380912E03682F82E10E9474
S1130C307C0860E08BE00E947C086FE382E40E9401
S1130C407C0861E180E00E947C0866EA8EE00E94F4
S1130C507C088EE00E94A00883FFFBCF66E28EE052
S1130C600E947C0861EE80E00E947C088091390338
S1130C70682F89E00E947C0860E08BE00E947C0879
S1130C8066EA8EE00E947C081EE0812F0E94A00884
S1130C9083FFFACF66E2812F0E947C0880E980936B
S1130CA02903682F8DE00E947C0880913A03282F45
S1130CB033278FB7F8949927209361048FBF0E943C
S1130CC0EE078FB7F8949927109251048FBF8FB70E
S1130CD0F89499271092A9041092A8041092500431
S1130CE010924F0410924703109246038FBF0E9444
S1130CF0EE078FB7F894992716B917B88FBF8FB737
S1130D00F894482F5527209100013091010181E585
S1130D1097E3289FF001299FF00D389FF00D1124CF
S1130D20CF018F5A984C90933F0480933E04909344
S1130D30A2048093A10485E89FE0289FB001299F25
S1130D40700D389F700D1124CB018B57904F9093E9
S1130D50C5018093C4014FBF0E940908809100011E
S1130D6090910101909389048093880410929104D6
S1130D7010926A0410926904109282031092810303
S1130D808FB7F894992710924C04DA9AD89AD99A82
S1130D908FBF10928703109286031092440410921E
S1130DA0430410923E0310923D0320E030E015C04E
S1130DB0F901E20FF31FE45BFE4F8BE290E0289F02
S1130DC0D001299FB00D389FB00D1124CD01855C51
S1130DD09D4F808391832F5F3F4F2430310544F32F
S1130DE00E9409080E943808109290008FE089B987
S1130DF022E02BB976E07093950088ED8AB98FB71D
S1130E00F89499276091BA018FBF613009F07DC0D1
S1130E108FB7F894482F5527E091BE03F091BF0394
S1130E2014822093BA011092B1011092B6018FEF8F
S1130E309FEF9093CA038093C903809183039927FA
S1130E40880F991FFC01E457FF4F24913327322F59
S1130E50222783579F4FFC0184919927282B392BF4
S1130E603093EA022093E9024FBF8091D50388238F
S1130E7069F56BE30E947C0880ED97E000000000B8
S1130E800000000000000000000000000197181698
S1130E901906A4F369E380E00E947C0888EC90E0E2
S1130EA0000000000000000000000000000000003E
S1130EB0019718161906A4F3BB98BA980E94D30890
S1130EC080EC8DB9B8980E94F2081FC09927880F4A
S1130ED0991FFC01EF55FF4F24913327322F22270E
S1130EE08E559F4FFC0184919927282B392B8FB75E
S1130EF0F89499277093BA018FBFC901AA27BB2719
S1130F009C01AD0183E00E94040928EE33E040E037
S1130F1050E060E082E00E940409109291040E9473
S1130F20F20828EE33E040E050E060E0862F0E94B3
S1130F30040926E930E040E050E060E081E00E94EE
S1130F4004098FB7F894182F209146033091470372
S1130F5023FD11C0C9018860909347038093460321
S1130F60232B49F483E090E09093A9048093A80490
S1130F7083E00E9471091FBF789490913F03809190
S1130F80B903981719F480E090E01FC08FB7F89464
S1130F90282F332790913F0380913F038F5F8093E5
S1130FA03F0380913F03877080933F03E92FFF271E
S1130FB0EE0FFF1FE050FD4F80819181108211825E
S1130FC02FBFFC01099581E090E08823B1F685B735
S1130FD0806285BF889500000000CFCF8FB7F8945A
S1130FE0282F80913A02882391F480E090E0E1E593
S1130FF0F4E0819301968C309105DCF38EE18093CB
S11310005B048FE180935C0481E080933A022FBFFC
S113101008951092920410929304109294041092E2
S113102095041092C0038FEF8093A0048093AF01C6
S11310301092FE0283E08093C10396EE9093D9034D
S11310408FB7F894282F332787B78E7F87BF87B74A
S11310508D7F87BF80B7886080BF8BE083BF12BE5F
S113106091BF87B7826087BF2FBF81E090E008956A
S11310708FB7F894682F80E090E047E551E09C0139
S1131080F901E80FF91FE05DFB4F44835583128299
S11310901382118201962B5F3F4F455D5F4F823073
S11310A0910574F3109260041092B5031092B40386
S11310B01092BC011092BB0110925601109255017E
S11310C01092AE011092AD0110925D041092D10302
S11310D0109262041092E8021092E7021092140334
S11310E010921303809134049091350490934A0430
S11310F0809349046FBF0895880F949896E087FF02
S113110002C0979A01C097989698969A880F915022
S113111097FFF5CF979A9698969A949A97E067FFD7
S113112002C0979A01C097989698969A660F915024
S113113097FFF5CF949A979A969A81E090E0089554
S113114090E0880F949826E030E087FF02C0979AD9
S113115001C097989698969A880F2150304037FF8F
S1131160F4CF27E030E097989698969A8F98949ABF
S1131170969840E050E0879941E0892F99272150C3
S11311803040442329F0880F991F982F916002C0A2
S1131190982F990F969A37FFEBCF949A8F9A979A34
S11311A0892F9927089561E180E00E947C0880914D
S11311B02503682F89E00E947C0860E08BE00E9490
S11311C07C088AEF90E000000000000000000000AE
S11311D0000000000000019718161906A4F381E02E
S11311E090E0089580910301882329F486E697E12D
S11311F00E94550206C085B7837E85BF85B780628D
S113120085BF80E090E00895CF92DF92EF92FF9245
S11312100F931F93CF93DF9379018A01843010F4E5
S113122062301CF080E090E053C0282F3327F9018E
S113123093E0EE0FFF1F9A95E1F7E20FF31FE857D3
S1131240FC4FE182F2820383148360838FB7F894A6
S1131250C82FDD2782B7E80EF11C011D111DE582A0
S1131260F6820783108781E0C82ED12CC60102C004
S1131270880F991F2A95E2F79C01442737FD409572
S1131280542F8091920490919304A0919404B0916E
S11312909504822B932BA42BB52B809392049093CB
S11312A09304A0939404B09395048091D90399274F
S11312B0AA27BB27E816F9060A071B0738F4E092A9
S11312C0D903E1BE1092C0030E94F208CFBFC60149
S11312D0DF91CF911F910F91FF90EF90DF90CF900E
S11312E00895982F8FB7F894282F3327E1E5F4E079
S11312F0E90FF11D80818F7187B92FBF379A369A14
S113130081E090E0089578941F920F920FB60F92A7
S113131011242F933F934F935F936F937F938F93F6
S11313209F93AF93BF93EF93FF938FB7F894282FB6
S113133033278091FF02882369F08091B80380935A
S1131340480488608093B80383BF8091100381BFF1
S11313501092FF022FBF89EB96E10E945502FF9184
S1131360EF91BF91AF919F918F917F916F915F9119
S11313704F913F912F910F900FBE0F901F90189592
S11313806F98B89AC0980E94F20881E090E008959E
S1131390CF93C1E020E08FB7F894382F8091600498
S11313A0882391F58091A704992781FF08C082EDD5
S11313B093E090933C0380933B0380E41AC082FF44
S11313C00FC0E091AD01F091AE01F0933C03E093C6
S11313D03B0382E48093B0018481992705960DC074
S11313E083FF12C089EB91E090933C0380933B030D
S11313F08FEF8093B00181E090E09093BC018093E3
S1131400BB012C2FC09360043FBF2223F1F08FB7A0
S1131410F894992710925601109255011092B50331
S11314201092B4038FBF8EE70E94290AC82F81301F
S113143061F08FB7F894282F332788E080936004F5
S11314402FBF8EE39AE00E9455028C2F9927CF91EB
S11314500895482F8FB7F894282F33279091C80305
S113146081E08093C8032FBF992319F080E090E0B6
S113147008954CB95E9A81E090E0089561E08FB7D9
S1131480F894282F332780916004883019F460E0A1
S1131490609360042FBF8091B0019091A7048034C1
S11314A051F48FB7F894282F332782E0982790932C
S11314B0A7042FBF17C08FB7F894282F332784E0D1
S11314C098279093A7042FBF8091AD019091AE010E
S11314D00E94750A8FB7F89499271092AE01109262
S11314E0AD018FBF0E94C80908951092910481E054
S11314F090E008958FB7F894482F552720913E0423
S113150030913F04832F881F8827881F220F331FA1
S1131510882321F08BE090E1282739272F5F3F4F64
S113152030933F0420933E048091C4019091C501FF
S1131530282739274FBFC90108951F920F920FB66C
S11315400F9211242F923F924F925F926F927F924B
S11315508F929F92AF92BF92CF92DF92EF92FF92BF
S11315600F931F932F933F934F935F936F937F93A7
S11315708F939F93AF93BF93CF93DF93EF93FF9397
S113158004B115B11370349A379878948FB7F894DE
S1131590F82E8091A804C82FDD2721E030E00C2E1E
S11315A002C0220F331F0A94E2F780914F049091F6
S11315B0500482239323892B61F4209530958091E4
S11315C04603909147038223932390934703809388
S11315D0460340914603509147034115510511F1CB
S11315E02091A8043091A9042F5F3F4F2C3031057E
S11315F011F0C90102C080E090E09C0181E090E01C
S1131600022E02C0880F991F0A94E2F784239523BF
S1131610892B51F33093A9042093A8048091A80442
S11316200E947109FFBEC330D10509F4B4C0C430AF
S1131630D10554F4C130D10529F1C230D1050CF0E3
S11316408CC0209791F0EBC2C530D10509F48BC250
S1131650C530D1050CF469C2C630D10509F4A1C264
S1131660C730D10509F4BAC2DAC28FB7F894282F6B
S113167033271093CC030093CB0381E0809345047C
S11316802FBFCEC21093D7030093D6038FB7F8941D
S1131690F82E209146033091470322FD11C0C90161
S11316A084609093470380934603232B49F482E09C
S11316B090E09093A9048093A80482E00E947109A9
S11316C0FFBE0536110518F021E030E002C020E02D
S11316D030E08091B7019091B8012817390749F19A
S11316E03093B8012093B7018091850490918604CA
S11316F0019731F08091FC029091FD020197C9F4A9
S113170080914604909147048130910531F4809191
S1131710B2039091B303019608C08F5F9F4F49F4C1
S11317208091B2039091B30301979093B303809394
S1131730B2038091850490918604892B51F48091A1
S1131740FC029091FD02009721F49093B3038093DF
S1131750B20300000000000060C210936C04009308
S11317606B048FB7F894182F2091460330914703E8
S113177024FD52C2C90180619093470380934603BC
S1131780232B09F049C284E090E09093A90480934C
S1131790A80484E03FC21093D4030093D3038FB70B
S11317A0F894F82E209146033091470321FD11C08F
S11317B0C90182609093470380934603232B49F425
S11317C081E090E09093A9048093A80481E00E94B2
S11317D07109FFBE0536110518F021E030E002C0A2
S11317E020E030E08091B6039091B70328173907C1
S11317F049F13093B7032093B60380918504909107
S11318008604019731F08091FC029091FD020197CA
S1131810C9F48091BC039091BD038130910531F4EA
S11318208091C6039091C703019608C08F5F9F4FB4
S113183049F48091C6039091C70301979093C7031D
S11318408093C60340918504509186044115510547
S113185051F48091FC029091FD02892B21F4509364
S1131860C7034093C6032091C6033091C70337FFD3
S113187003C0309521953F4F8091AC039091AD0307
S113188097FF03C0909581959F4F2817390709F05A
S1131890C4C14130510509F0C0C180E090E00E940C
S11318A0520E80E090E00E94990E109286041092ED
S11318B08504E0909C04F0909D0400919E04109196
S11318C09F0480917B0390917C03A0917D03B09150
S11318D07E039C01AD01C801B7010E949F1ADC017F
S11318E0CB018093BD019093BE01A093BF01B0933F
S11318F0C0012BED3FE049EC50E4BC01CD010E9456
S1131900561B7B018C012BED3FE049E450EC0E9417
S1131910691B882354F42BED3FE049EC50E4C801E3
S1131920B7010E949F1A7B018C012BED3FE049E433
S113193050E4C801B7010E946C1B181654F42BED37
S11319403FE049EC50E4C801B7010E949E1A7B01B4
S11319508C01E092BD01F092BE010093BF0110938F
S1131960C0011092C7031092C6031092B3031092E1
S1131970B2032090F6023090F702B1E02B16310446
S113198009F0B2C082E090E09093F7028093F602EF
S11319904090150350901603F201A080B180C280DC
S11319A0D380A0926304B0926404C0926504D09280
S11319B06604648075808680978060923602709297
S11319C037028092380290923902809148039091B4
S11319D04903A0914A03B0914B0380938C049093E4
S11319E08D04A0938E04B0938F04E0904C03F09088
S11319F04D0300914E0310914F03E092F802F092D0
S1131A00F9020093FA021093FB029C01AD01C60196
S1131A10B5010E949E1A5B016C01A8019701C401E3
S1131A20B3010E949E1A7B018C0180E090E0A0E04B
S1131A30B0E08093480390934903A0934A03B09382
S1131A404B0380934C0390934D03A0934E03B093A8
S1131A504F0380939C0490939D04A0939E04B093A1
S1131A609F04A6019501C601B5010E94FE1B5B01FE
S1131A706C01A8019701C801B7010E94FE1BDC019B
S1131A80CB019C01AD01C601B5010E949F1ADC0186
S1131A90CB01BC01CD010E944C1CDC01CB01F20145
S1131AA080839183A283B38380E090E0A0E0B0E0E0
S1131AB084839583A683B78310928B0410928A043F
S1131AC010923D0410923C043092FD022092FC02DC
S1131AD08AE999E9A9E9BFE3809381049093820498
S1131AE0A0938304B09384048091F6029091F7024A
S1131AF0049791F485E090E09093F7028093F602C6
S1131B0086E696E6A6EABFE3809381049093820476
S1131B10A0938304B093840426E930E040E050E0CD
S1131B2060E081E00E94040978C01093850300936B
S1131B3084038FB7F894182F2091460330914703FC
S1131B4027FD6AC0C90180689093470380934603C8
S1131B50232B09F061C087E090E09093A90480935F
S1131B60A80487E057C01093BB030093BA038FB750
S1131B70F894182F209146033091470323FD4CC05D
S1131B80C90188609093470380934603232B09F08F
S1131B9043C083E090E09093A9048093A80483E079
S1131BA039C01093C2010093C1018FB7F894182F64
S1131BB0209146033091470325FD2EC0C901806260
S1131BC09093470380934603232B31F585E090E0FF
S1131BD09093A9048093A80485E01CC01093AF03DC
S1131BE00093AE038FB7F894182F209146033091D9
S1131BF0470326FD11C0C901806490934703809375
S1131C004603232B49F486E090E09093A904809343
S1131C10A80486E00E9471091FBF81E001C080E032
S1131C2099272FB7F8948823C9F461E070E002C0C3
S1131C30660F771FCA95E2F740914F045091500404
S1131C40CA0186239723892B49F0CB01809590956F
S1131C50482359235093500440934F042FBFFF91BE
S1131C60EF91DF91CF91BF91AF919F918F917F9130
S1131C706F915F914F913F912F911F910F91FF9021
S1131C80EF90DF90CF90BF90AF909F908F907F9018
S1131C906F905F904F903F902F900F900FBE0F90DA
S1131CA01F9018959C01853691051CF024E630E0C0
S1131CB005C08C599F4F14F42CE93FEF12161306FC
S1131CC01CF481E090E004C037FF06C08FEF9FEF63
S1131CD09093BD038093BC038091BC039091BD039A
S1131CE0009779F01816190624F08F5F9F4F21F0A2
S1131CF00AC0019719F007C0A89A04C0A898A99A25
S1131D0002C0A898A99886B597B564E670E00E94C9
S1131D10B01CC90137FF03C0909581959F4F689F00
S1131D209001699F300D789F300D11243BBD2ABD71
S1131D3008959C01853691051CF024E630E005C029
S1131D408C599F4F14F42CE93FEF121613061CF420
S1131D5081E090E004C037FF06C08FEF9FEF9093BF
S1131D604704809346048091460490914704009769
S1131D7079F01816190624F08F5F9F4F21F00AC0DE
S1131D80019719F007C0AA9A04C0AA98AB9A02C096
S1131D90AA98AB9886B597B564E670E00E94B01C2B
S1131DA0C90137FF03C0909581959F4F689F9001AB
S1131DB0699F300D789F300D112439BD28BD0895D9
S1131DC0CF93DF93EC0120910001309101018091C8
S1131DD081039091820301969093820380938103FF
S1131DE08AA19BA1019709F048C09B8180910201BF
S1131DF0981709F042C0888199814FEF8F3F94076B
S1131E0019F082179307C9F59A8183E08C5F8B32AE
S1131E10E8F3892F99278433910599F08533910547
S1131E201CF4C39739F029C08533910599F0C697FE
S1131E30D1F023C0D0934D01C0934C0184E096E1CE
S1131E401AC0D0935101C09350010E94410F8CECF1
S1131E5094E111C0D0935301C09352010E945A0FD0
S1131E6086E996E108C0D0934F01C0934E010E94C9
S1131E705A0F82E695E10E945502CE01DF91CF917F
S1131E8008958FB7F894382F20914C0420FF06C092
S1131E908FB7F8949927DA9A2E7F05C08FB7F894F4
S1131EA09927DA98216020934C048FBF3FBF81E0CB
S1131EB090E008958FB7F894382F20914C0421FFB7
S1131EC006C08FB7F8949927D99A2D7F05C08FB78C
S1131ED0F8949927D998226020934C048FBF3FBF70
S1131EE081E090E008951F93CF93682F809161045F
S1131EF0811160958091BA01482F552742305105D0
S1131F0009F4ADC04330510524F44115510571F075
S1131F10A2C24430510509F47EC1443051050CF489
S1131F2004C14530510509F4D8C195C220914B0430
S1131F308FB7F894992720931B038FBF6091670490
S1131F40709168046F5F7F4F7093680460936704B7
S1131F508091540199278430910559F18530910578
S1131F6034F48230910559F00397B1F06AC0863099
S1131F70910509F45EC006970CF44BC062C08091D1
S1131F80E9029091EA026817790708F464C283E3CE
S1131F9080934B0483E052C08CEC80934B0484E028
S1131FA0809354018FEF9FEF9093680480936704AC
S1131FB052C280916704282F33278091F1029091B7
S1131FC0F20228173907F8F4E0914D04F0914E0419
S1131FD0E60FF71F208120934B0480911703909103
S1131FE01803EDEBF0E02927220FF11DE20FF11D9C
S1131FF0C895982F802D3196C895902590931803F5
S11320008093170328C28091170380934B0485E0C3
S113201015C08091170390911803892F99278093F5
S11320204B0486E080935401509368044093670402
S113203012C26430710508F40EC287E08093540123
S11320400AC2BB98BA980E94D3081092B60180EED7
S113205097E10E945502882309F4FDC199C16A3AA7
S113206011F0653571F520919A0430919B042F5F2E
S11320703F4F30939B0420939A048091D503E82F1B
S1132080FF27E656FF4F849199278217930708F09C
S1132090E2C11092900410929B0410929A04109240
S11320A04503109244031092F50210921803109203
S11320B0170382E290E09093B1038093B00384E02D
S11320C068C18091B601882309F4C5C18091C90310
S11320D09091CA0301979093CA038093C903181679
S11320E019060CF4B8C1109245048FB7F894C82FA0
S11320F0209146033091470320FD10C0C90181603F
S113210090934703809346032115310539F43093A6
S1132110A9042093A80480E00E947109CFBF109203
S11321209B0410929A0483E034C16A3A09F45EC0B5
S1132130653509F45BC080914504882309F48BC19B
S11321408091D503E82FFF27EA54FF4F8491282F6D
S113215033278091CB039091CC032817390708F0DB
S113216045C061EE80E00E947C0880913903682FAD
S113217089E00E947C088AEF90E0000000000000E3
S11321800000000000000000000001971816190666
S1132190A4F380912703682F8BE00E947C0884E1DC
S11321A090E00000000000000000000000000000BB
S11321B00000019718161906A4F3BB9ABA9A109254
S11321C06804109267041092180310921703109277
S11321D0BA0182E0809354012AEA20934B048FB71A
S11321E0F894992720931B038FBF35C10E947A0A64
S11321F08F70907024E230E0829FA001839F500D85
S1132200929F500D1124CA01820F931F9093CA0309
S11322108093C903BDC06A3A11F0653519F460931F
S1132220120319C1809190049927009721F0039714
S11322300CF04AC006C06093110349C00E94410FCC
S113224043C02091110330911203922F8827909359
S11322501203809311036093110310E0220F331FC4
S113226067FD2160660F53E32C3C350749F5E09187
S1132270BE03F091BF034481442301F785E08093BA
S1132280BA018FB7F894C82F2091460330914703C1
S113229020FD10C0C90181609093470380934603D9
S11322A02115310539F43093A9042093A804842F0F
S11322B00E947109CFBF87E0811B8093F50207C09C
S11322C01F5F183058F203C082E08093BA018091F6
S11322D090048F5F80939004BEC08091110390910D
S11322E01203982F8827909312038093110360930D
S11322F0110320911103309112030090F50202C0E2
S1132300369527950A94E2F7622FE091BE03F09187
S1132310BF038091440390914503E80FF91F208384
S113232040914403509145034F5F5F4F50934503E1
S1132330409344038091B0039091B1034817590727
S113234098F58091170390911803EDEBF0E069275D
S1132350660FF11DE60FF11DC895982F802D31965B
S1132360C895902590931803809317034530510521
S113237009F071C0E091BE03F091BF0384819927F5
S11323809093B1038093B0038E31910528F01482A9
S113239082E08093BA015FC00097F1F005969093B4
S11323A0B1038093B00357C048175907E1F48091F3
S11323B0170390911803EDEBF0E06927660FF11D08
S11323C0E60FF11DC895982F802D3196C89590255C
S11323D0909318038093170382E290E0909345034F
S11323E08093440338C044325105A8F1E091BE0300
S11323F0F091BF0322A133A1809117039091180398
S11324002817390729F481E090E082A393A302C03E
S113241012A213A20E94C009C2E0C093BA01E091C3
S1132420BE03F091BF038091CB039091CC0384A3AE
S113243095A38EE997E10E945502882361F4E09107
S1132440BE03F091BF038483C093BA0180EC8DB9BD
S1132450B8980E94F20881E090E0CF911F9108950E
S1132460382F80915D0499278230910509F46BC05F
S1132470833091052CF4009759F0019781F1B7C18D
S11324808330910509F49CC0049709F459C1AFC184
S11324903E3709F0AEC18091D1039927FC01EE0FBC
S11324A0FF1FEE0FFF1FE80FF91FE80FF91FE05D94
S11324B0FB4F82819381009709F09BC11182909315
S11324C01403809313039093E8028093E7028481BA
S11324D0958190934A048093490481E085C13E37F5
S11324E009F487C18091D1039927FC01EE0FFF1FE6
S11324F0EE0FFF1FE80FF91FE80FF91FE05DFB4F18
S113250030838091130390911403EDEBF0E0232FBB
S11325102927220FF11DE20FF11DC895982F802D58
S11325203196C89590259093140380931303832FB9
S113253099278134910529F08234910509F453C116
S113254056C182E051C13E3709F451C16091D103B3
S11325503D3781F4862F9927FC01EE0FFF1FEE0F04
S1132560FF1FE80FF91FE80FF91FE05DFB4F80E242
S113257081833FC1862F9927FC01EE0FFF1FEE0FC9
S1132580FF1FE80FF91FE80FF91FE05DFB4F2181E2
S1132590232721838091130390911403EDEBF0E042
S11325A02927220FF11DE20FF11DC895982F802DC8
S11325B03196C8959025909314038093130313C107
S11325C04091E7025091E8024C32510508F0BAC03C
S11325D03D3711F484E008C13E3709F07FC0423032
S11325E0510508F45FC0E0914904F0914A04E40FF6
S11325F0F51F82919927382F222782919927282B1A
S1132600392B80911303909114036091D1032817FF
S11326103907E1F4862F9927FC01EE0FFF1FEE0F17
S1132620FF1FE80FF91FE80FF91FE05DFB4F425051
S113263050404283538385EF97E10E945502809175
S1132640D1038F5F81708093D10310C0862F9927A7
S1132650FC01EE0FFF1FEE0FFF1FE80FF91FE80F3D
S1132660F91FE05DFB4F1282138211828091D10326
S11326709927FC01EE0FFF1FEE0FFF1FE80FF91F54
S1132680E80FF91FE05DFB4F82819381892BD9F418
S11326908481958190934A048093490481E08093D6
S11326A05D0413C08091D1039927FC01EE0FFF1F35
S11326B0EE0FFF1FE80FF91FE80FF91FE05DFB4F56
S11326C012821382118210925D04109214031092EC
S11326D013031092E8021092E7028BC0E0914904C0
S11326E0F0914A04E40FF51F30834091E7025091C2
S11326F0E80242305105E8F02091130330911403AD
S1132700E0914904F0914A04E40FF51F3297808167
S1132710EDEBF0E08327880FF11DE80FF11DC8955C
S1132720322F202D3196C8953025309314032093F1
S113273013034F5F5F4F5093E8024093E70259C081
S11327403E37D1F410921403109213031092E8024E
S11327501092E7028091D1039927FC01EE0FFF1F2D
S1132760EE0FFF1FE80FF91FE80FF91FE05DFB4FA5
S11327701282138211823BC080E28327E0914904D4
S1132780F0914A042091E7023091E802E20FF31F2E
S113279080834091E7025091E80242305105E8F00D
S11327A02091130330911403E0914904F0914A04F9
S11327B0E40FF51F32978081EDEBF0E08327880F5B
S11327C0F11DE80FF11DC895322F202D3196C895C3
S11327D0302530931403209313034F5F5F4F5093BE
S11327E0E8024093E70283E080935D0402C0109204
S11327F05D0481E090E008958FB7F89499272091C3
S1132800C8031092C8038FBF222309F4A4C0809187
S11328106004873031F4109260048EE39AE00E94E1
S1132820550221E08091600499278430910509F4D0
S11328306EC08530910554F48230910561F1833086
S113284091050CF058C0019749F07CC08630910581
S113285009F471C006970CF463C074C082E08093DD
S1132860600420915501309156018091B001EDEB47
S1132870F0E08327880FF11DE80FF11DC895322F72
S1132880202D3196C895302530935601209355015B
S11328908091B00154C0E0913B03F0913C0320913E
S11328A0B4033091B503E20FF31F508180915501B9
S11328B090915601EDEBF0E0452F4927440FF11DAF
S11328C0E40FF11DC895982F802D3196C895902559
S11328D090935601809355012F5F3F4F3093B5037A
S11328E02093B4038091BB019091BC012817390750
S11328F098F084E00FC08091870490E289270E94B9
S1132900290A282F80914204809360041BC05091AF
S1132910550185E080936004852F0E94AE1411C098
S11329208091550190915601292F332786E0809399
S11329306004822FF2CF87E0809360048EE70E94C8
S1132940290A282F213039F088E0809360048EE32F
S11329509AE00E94550281E090E00895982F8D57E7
S1132960823078F48FB7F894282F3327809160044D
S11329708093420483E080936004909387042FBF84
S11329809DE7892F0E94290A992708958FBF0895EA
S11329908FB7F89499270895CF92DF92EF92FF9220
S11329A00F931F93CF93DF93E0905001F090510168
S11329B085E090E0E80EF91EF7018281813071F420
S11329C086EC91E090934104809340049093160325
S11329D0809315031092F7021092F602C0914004FE
S11329E0D0914104F2E0C832DF0729F46EE9C62E23
S11329F06FEFD62E03C05EE0C52ED12CCC0EDD1EAB
S1132A008091150390911603C816D90609F451C094
S1132A10F70103811481C801AA2797FDA095BA2F55
S1132A20BC01CD010E944C1B17FF06C020E030E022
S1132A3040E857E40E949F1A20E030E04AE754E45B
S1132A400E94E91ADC01CB0188839983AA83BB83A2
S1132A50F70105811681C801AA2797FDA095BA2F11
S1132A60BC01CD010E944C1B17FF06C020E030E0E2
S1132A7040E857E40E949F1A20E030E04AE754E41B
S1132A800E94E91ADC01CB018C839D83AE83BF8352
S1132A90F70187819085A185B28588879987AA8760
S1132AA0BB87808191818C879D87D0924104C0929D
S1132AB04004DF91CF911F910F91FF90EF90DF9031
S1132AC0CF9008956F927F928F929F92AF92BF9210
S1132AD0CF92DF92EF92FF920F931F93E0914E01FA
S1132AE0F0914F013596638074808580968087814C
S1132AF09085A185B28528E539E344EB5DE3BC010B
S1132B00CD010E94FE1BDC01CB0120E030E040E05F
S1132B105FE3BC01CD010E94FE1B7B018C019B0184
S1132B20AC01C401B3010E949E1A5B016C01A801AF
S1132B309701C401B3010E949F1A7B018C0120E01C
S1132B4030E048EC52E4C601B5010E94FE1BDC01F2
S1132B50CB01BC01CD010E942F1BDC01CB01AA27B4
S1132B6097FDA095BA2FBC01CD010E944C1BDC013E
S1132B70CB012AE939E949E95EE3BC01CD010E94B0
S1132B80E91ADC01CB01BC01CD010E942F1BDC0141
S1132B90CB010E94520E20E030E048EC52E4C80120
S1132BA0B7010E94FE1BDC01CB01BC01CD010E94D8
S1132BB02F1BDC01CB01AA2797FDA095BA2FBC01DE
S1132BC0CD010E944C1BDC01CB012AE939E949E91A
S1132BD05EE3BC01CD010E94E91ADC01CB01BC011A
S1132BE0CD010E942F1BDC01CB010E94990E1F9185
S1132BF00F91FF90EF90DF90CF90BF90AF909F9098
S1132C008F907F906F900895EF92FF920F931F9390
S1132C10CF93DF93E0905001F090510185E090E074
S1132C20E80EF91E8FB7F894382F20914C0422FF38
S1132C3006C08FB7F8949927D89A2B7F05C08FB711
S1132C40F8949927D898246020934C048FBF3FBFF1
S1132C50F701818192810A9731F4838194810A97E3
S1132C6011F40E94410FF701018112811093CE03E8
S1132C700093CD03C381D481D093AB04C093AA0441
S1132C80C801AA2797FDA095BA2FBC01CD010E94C7
S1132C904C1B17FF06C020E030E040E857E40E94D8
S1132CA09F1A20E030E04AE754E40E94E91ADC016C
S1132CB0CB018093480390934903A0934A03B093B4
S1132CC04B03CE01AA2797FDA095BA2FBC01CD01D5
S1132CD00E944C1BD7FF06C020E030E040E857E4D8
S1132CE00E949F1A20E030E04AE754E40E94E91A67
S1132CF0DC01CB0180934C0390934D03A0934E03CE
S1132D00B0934F03F70185819681A781B0858093A5
S1132D109C0490939D04A0939E04B0939F04DF9120
S1132D20CF911F910F91FF90EF900895E091520180
S1132D30F091530135968FB7F894282F3327838168
S1132D409481A581B6818093A3049093A404A09355
S1132D50A504B093A60487819085A185B28580934C
S1132D60ED029093EE02A093EF02B093F0022FBF16
S1132D7008958F929F92AF92BF92DF92EF92FF924B
S1132D800F931F93CF93DF9381E08093C0038091CF
S1132D90920490919304A0919404B09195040097A7
S1132DA0A105B10509F484C0DD2408E813E0EE248C
S1132DB0FF2461E070E00E2C02C0660F771F0A94B6
S1132DC0E2F7CB01AA2797FDA095BA2F8090920431
S1132DD090909304A0909404B09095048821992134
S1132DE0AA21BB210097A105B10509F457C0809120
S1132DF0D90399270196AA2797FDA095BA2FF80120
S1132E002581368147815085281B390B4A0B5B0B82
S1132E102583368347835087233031054105510587
S1132E20ECF58081882369F481819281A381B48146
S1132E30280F391F4A1F5B1F25833683478350871A
S1132E4013C0CB0180959095AA2797FDA095BA2F22
S1132E5088229922AA22BB228092920490929304FF
S1132E60A0929404B09295048091A004833019F444
S1132E708FEF8093A0049091A0049F5F9093A0048F
S1132E808091FE028F5F8093FE02E92FFF27EE54AC
S1132E90FE4FD08287E698E10E945502D3940894AD
S1132EA0E11CF11C075F1F4FF3E0FD1508F081CF13
S1132EB00E947E01DF91CF911F910F91FF90EF90BF
S1132EC0DF90BF90AF909F908F90089587B7992718
S1132ED08C7F009719F080E090E01AC06F9918C0B9
S1132EE0379B03C088E090E013C087B799278370AD
S1132EF09070892B59F081B792B7891B803118F4EF
S1132F008CE190E005C088E190E002C080E190E0AF
S1132F10382F25B7237E8C3121F0883111F008C079
S1132F20000080B7992787709070892BC9F7237E9A
S1132F30232B25BF85B7806285BF08958FB7F8948A
S1132F40682F7727E091BE03F091BF0317A210A664
S1132F5084A195A19C01220F331F220F331F280F38
S1132F60391F40917F0350918003CA01880F991F34
S1132F70840F951F280F391F73E0369527957A958E
S1132F80E1F73093800320937F036FBFCF010E944A
S1132F90E00E9C018FB7F89499272115310521F093
S1132FA03093BF032093BE03E091BE03F091BF03AF
S1132FB014828FBF80EC8DB9B8980E94F2080895EE
S1132FC08FB7F8949927E0914D04F0914E0417A21D
S1132FD010A68FBF61E0CF010E94750A8FB7F894E5
S1132FE099271092B1018FBF08950F931F93CF9328
S1132FF0DF939091620486E0989F80011124005D24
S11330001B4FF801C481D58182819381059780F19A
S11330102081822F99278134910559F082349105BA
S113302024F48034910521F11DC08234910571F09E
S113303019C081E090E08AA39BA3F8018181809369
S1133040D80381E598E10E94550204C081E090E034
S11330508AA39BA3809102018B83CE010E94E00E80
S1133060EC0106C02093B9018FE399E10E94550257
S11330708FB7F894282F3327209719F0F801C483C9
S1133080D583F801128213821182809162048F5FCA
S11330908170809362042FBFDF91CF911F910F91B4
S11330A008952091D80331E08FB7F8949091A70444
S11330B091FD06C092609093A7042093D20301C0AF
S11330C030E08FBF313011F40E94C80908951F9376
S11330D0CF93DF939091FE02992319F484E090E05A
S11330E015C08091AF01833019F48FEF8093AF0145
S11330F08091AF018F5F8093AF0191509093FE0256
S1133100E82FFF27EE54FE4F80819927843008F082
S1133110B2C099278130910509F4ADC08230910580
S11331201CF4892B39F0A7C08230910541F0039734
S113313099F0A1C08CE499E10E9455029CC0809151
S113314081039091820390936A048093690410929E
S11331508203109281038FC0E091D503EE2309F41A
S11331608AC08FB7F89499272091BA011091B601BB
S11331708FBF33272230310521F02630310591F1FC
S113318072C08E2F9927880F991FFC01EF55FF4FAE
S113319024913327D22FCC278E559F4FFC01849145
S11331A09927C82BD92B112309F05DC08FB7F89448
S11331B0282F332786E08093BA012FBFCE01AA2798
S11331C0BB279C01AD0161E083E00E940409612FEB
S11331D08BE00E947C086FE3812F0E947C080E9490
S11331E0C00949C0FF27E155FF4F8491C82FDD274F
S11331F08FB7F894282F332782E08093BA012FBF2A
S11332006BE380E00E947C0880ED97E00000000002
S113321000000000000000000000000001971816E4
S11332201906A4F369E380E00E947C0888EC90E02E
S1133230000000000000000000000000000000008A
S1133240019718161906A4F3BB98BA980E94D308DC
S113325080EC8DB9B8980E94F208CE01AA27BB274A
S11332609C01AD0104C020E230E040E050E061E0A8
S113327083E00E940409DF91CF911F9108958FB7D5
S1133280F894282F33278091A70488608093A7049B
S11332902FBF0E94C8090895FF920F931F93CF93E5
S11332A0DF938FB7F894482F5527209186033091E8
S11332B087038BE290E0289FB001299F700D389F0F
S11332C0700D1124FB01E152FC4F4FBF8091D303D9
S11332D09091D403858396838091D6039091D703EC
S11332E08783908780916B0490916C048187928787
S11332F08091840390918503838794878091AE03A2
S11333009091AF03858796878091C1019091C20106
S1133310818392838091BA039091BB0383839483C6
S11333208091CD039091CE038787908B8091AA04DE
S11333309091AB04818B928B13E0F12EF082EB0120
S1133340C652DC4F01E010919104112301F5009362
S1133350910482EE99E10E945502882319F4109396
S1133360910415C0D093F402C093F30287E18C83D7
S11333708BE090E0888399830A83809102018B8398
S11333808F2D8C5F8B32E8F381E090E002C080E007
S113339090E0892B89F08FB7F894482F55278091B6
S11333A086039091870321E030E08227932790934E
S11333B08703809386034FBFDF91CF911F910F91B5
S11333C0FF9008951F93CF93E091F302F091F402DC
S11333D0808191818E379105C1F461E08FB7F894B3
S11333E09091A70492FD08C094609093A704F09371
S11333F0AE01E093AD0101C060E08FBF613009F020
S113340092C00E94C809682F8EC011E08FB7F8944B
S1133410C82F8091B101882311F010E018C01093D7
S1133420B101F0934E04E0934D04848199270596ED
S11334309093F2028093F1020E947A0A8F7790703F
S113344084969093CA038093C9031093B601CFBFA7
S1133450112309F467C08FB7F89499272091BA0112
S11334608FBF263009F05EC04091920450919304BE
S1133470609194047091950443FF17C08FB7F8943A
S1133480282F3327DB01CA01877F8093920490930E
S11334909304A0939404B09395042FBF0097A105BF
S11334A0B10519F481E08093C0036BE380E00E94CE
S11334B07C0880ED97E000000000000000000000A0
S11334C0000000000000019718161906A4F369E330
S11334D080E00E947C0888EC90E00000000000007E
S11334E000000000000000000000019718161906F3
S11334F0A4F30E94D308BB98BA9880EC8DB9B8980D
S11335000E94F20820E230E040E050E061E083E015
S11335100E9404098FB7F894282F332782E0809300
S1133520BA012FBF612F662331F48091F302909189
S1133530F4020E94750ACF911F9108955058192ED4
S11335400AD101D0EDC0BA17620773078407950743
S1133550B1F188F40EF410940B2EBA2FA02D062E80
S1133560622F202D072E732F302D082E842F402DEF
S1133570092E952F502DFF275523B9F0591B49F0DB
S1133580573E98F0469537952795A795F040539563
S1133590C9F776F0BA0F621F731F841F30F4879542
S11335A077956795B795F040939517FA0F2E089580
S11335B0BF1BBB27BA0B620B730B840BF6CFDEF673
S11335C0E6C0592F482F372F262F9FE380E877270F
S11335D06627C1D001D0A4C0552359F0992369F0BE
S11335E09F575F57951B33F442F4903811F4915868
S11335F005C0AEC091589F3F09F4C9C0BB27112430
S113360062177307840730F4660F771F881FBB1F88
S1133610915098F311D00F920FD00F920DD0A0E8D3
S11336202617370748071B0609F0A048BA2F602D54
S11336307F918F9100240895A0E8002462177307F6
S11336408407B10528F0621B730B840BB1090A2AA5
S1133650660F771F881FBB1FA69581F7089597FBF8
S113366086D09F3738F0FEE9F91B982F872F762FE5
S11336706B2F05C089C09695879577956795F1500E
S1133680D0F73EF490958095709561957F4F8F4F5C
S11336909F4F0895E89403C097FB0EF4F3DFB62F11
S11336A0672F782F892F9EE900243AC05F7755232E
S11336B019F444230AF04CC02F933F934F935F9324
S11336C088DF5527442765D05F914F913F912F9113
S11336D095C00ED05EF004C00BD026F001C008D017
S11336E019F020F48FEF089580E0089581E00895A3
S11336F097FB092E052600F8689430D0E89407FC5F
S113370007C0621773078407950721F008F4009433
S11337100794989408959A95BB0F661F771F881F86
S113372011249923A1F08823B2F79F3F59F0BB0FCE
S113373048F421F4002011F460FF04C06F5F7F4F50
S11337408F4F9F4F881F9795879597F908951CC0B1
S11337509FEF80EC0895052E092607FA440F551FA4
S11337605F3F79F0AA27A51708F051E04795880F25
S1133770991F9F3F31F0BB27B91708F091E0879557
S113378008959F919F91E4CF6627772788279927EB
S1133790089597FBECDFCF93DF93D52FC42F5527E4
S11337A04427332722279923D9F09F37C8F0F92FCC
S11337B0B7DF592F482F372F262FF63968F44FDFFC
S11337C06BDFC030CD0721F0699379938993999386
S11337D09058DF91CF91B3CE992788277727662712
S11337E0C030CD0721F02993399349935993DF9140
S11337F0CF9196CF592F482F372F262FACDF01D0EA
S11338008FCF992339F0552329F09F575F57950F90
S113381013F4CAF1BCCF91589F3FE1F3A62F0024C3
S11338201124BB2766275527F8E0A69520F4020E3D
S1133830131EB41F651F220F331F441F551FFA9513
S1133840A1F7F8E0E72F7727F8E0E69520F4130EC8
S1133850B41F651F7A1F330F441F551FAA1FFA9503
S1133860A1F7F82F8827F69520F4B40F651F7A1F67
S11338708E1F440F551FAA1FEE1FFF23A1F7882395
S11338801AF4939539F464CF000C111CBB1F661F06
S1133890771F881F0128089597FD5ACF482F992331
S11338A0F9F165DFF92FFF57F5959F1B9F1BFF93D8
S11338B0405847953327222740685FE7E894FF92F2
S11338C0EF92DF92CF92BF92AF929F928F92C92EC6
S11338D0D82EE72EF62E6F2D7E2D8D2D9C2D852E28
S11338E0942EA32EB22E78DE582D492D3A2D2B2D51
S11338F0112429DE9A95592F482F372F262FB216D7
S1133900A3069406850639F78F909F90AF90BF90D9
S1133910CF90DF90EF90FF900F90900D002400CF98
S11339200895629FD001739FF001829FE00DF11D05
S1133930649FE00DF11D929FF00D839FF00D749F25
S1133940F00D659FF00D9927729FB00DE11DF91FD1
S1133950639FB00DE11DF91FBD01CF01112408952E
S1133960AA1BBB1B51E107C0AA1FBB1FA617B707A1
S113397010F0A61BB70B881F991F5A95A9F78095BD
S11339809095BC01CD010895A1E21A2EAA1BBB1B80
S1133990FD010DC0AA1FBB1FEE1FFF1FA217B30717
S11339A0E407F50720F0A21BB30BE40BF50B661F2D
S11339B0771F881F991F1A9469F7609570958095F1
S10F39C090959B01AC01BD01CF0108955E
S11339CC01003301008025009224200000201C00FB
S11339DC00001900008016005D74140000C0120071
S11339ECC54E110049121000BD04880552061C076F
S11339FCE607B0087B09450A0F0BAA01F10138024E
S10F3A0C8002C7020E0355039C03E30371
S9030000FC
